{
  "contractName": "DerivativeWork",
  "abi": [
    {
      "inputs": [
        {
          "internalType": "string",
          "name": "_uri",
          "type": "string"
        },
        {
          "internalType": "string",
          "name": "collectionName",
          "type": "string"
        },
        {
          "internalType": "string",
          "name": "collectionSymbol",
          "type": "string"
        },
        {
          "internalType": "uint256",
          "name": "_maxSupply",
          "type": "uint256"
        },
        {
          "internalType": "uint256",
          "name": "_mintPrice",
          "type": "uint256"
        },
        {
          "internalType": "address",
          "name": "_originalCreator",
          "type": "address"
        },
        {
          "internalType": "uint256",
          "name": "_originalCreatorTokens",
          "type": "uint256"
        },
        {
          "internalType": "address",
          "name": "_derivativeCreator",
          "type": "address"
        },
        {
          "internalType": "uint256",
          "name": "_derivativeCreatorTokens",
          "type": "uint256"
        }
      ],
      "stateMutability": "nonpayable",
      "type": "constructor"
    },
    {
      "anonymous": false,
      "inputs": [
        {
          "indexed": true,
          "internalType": "address",
          "name": "owner",
          "type": "address"
        },
        {
          "indexed": true,
          "internalType": "address",
          "name": "approved",
          "type": "address"
        },
        {
          "indexed": true,
          "internalType": "uint256",
          "name": "tokenId",
          "type": "uint256"
        }
      ],
      "name": "Approval",
      "type": "event"
    },
    {
      "anonymous": false,
      "inputs": [
        {
          "indexed": true,
          "internalType": "address",
          "name": "owner",
          "type": "address"
        },
        {
          "indexed": true,
          "internalType": "address",
          "name": "operator",
          "type": "address"
        },
        {
          "indexed": false,
          "internalType": "bool",
          "name": "approved",
          "type": "bool"
        }
      ],
      "name": "ApprovalForAll",
      "type": "event"
    },
    {
      "anonymous": false,
      "inputs": [
        {
          "indexed": true,
          "internalType": "address",
          "name": "previousOwner",
          "type": "address"
        },
        {
          "indexed": true,
          "internalType": "address",
          "name": "newOwner",
          "type": "address"
        }
      ],
      "name": "OwnershipTransferred",
      "type": "event"
    },
    {
      "anonymous": false,
      "inputs": [
        {
          "indexed": true,
          "internalType": "address",
          "name": "from",
          "type": "address"
        },
        {
          "indexed": true,
          "internalType": "address",
          "name": "to",
          "type": "address"
        },
        {
          "indexed": true,
          "internalType": "uint256",
          "name": "tokenId",
          "type": "uint256"
        }
      ],
      "name": "Transfer",
      "type": "event"
    },
    {
      "inputs": [
        {
          "internalType": "address",
          "name": "to",
          "type": "address"
        },
        {
          "internalType": "uint256",
          "name": "tokenId",
          "type": "uint256"
        }
      ],
      "name": "approve",
      "outputs": [],
      "stateMutability": "nonpayable",
      "type": "function"
    },
    {
      "inputs": [
        {
          "internalType": "address",
          "name": "owner",
          "type": "address"
        }
      ],
      "name": "balanceOf",
      "outputs": [
        {
          "internalType": "uint256",
          "name": "",
          "type": "uint256"
        }
      ],
      "stateMutability": "view",
      "type": "function"
    },
    {
      "inputs": [
        {
          "internalType": "uint256",
          "name": "tokenId",
          "type": "uint256"
        }
      ],
      "name": "getApproved",
      "outputs": [
        {
          "internalType": "address",
          "name": "",
          "type": "address"
        }
      ],
      "stateMutability": "view",
      "type": "function"
    },
    {
      "inputs": [
        {
          "internalType": "address",
          "name": "owner",
          "type": "address"
        },
        {
          "internalType": "address",
          "name": "operator",
          "type": "address"
        }
      ],
      "name": "isApprovedForAll",
      "outputs": [
        {
          "internalType": "bool",
          "name": "",
          "type": "bool"
        }
      ],
      "stateMutability": "view",
      "type": "function"
    },
    {
      "inputs": [],
      "name": "name",
      "outputs": [
        {
          "internalType": "string",
          "name": "",
          "type": "string"
        }
      ],
      "stateMutability": "view",
      "type": "function"
    },
    {
      "inputs": [],
      "name": "owner",
      "outputs": [
        {
          "internalType": "address",
          "name": "",
          "type": "address"
        }
      ],
      "stateMutability": "view",
      "type": "function"
    },
    {
      "inputs": [
        {
          "internalType": "uint256",
          "name": "tokenId",
          "type": "uint256"
        }
      ],
      "name": "ownerOf",
      "outputs": [
        {
          "internalType": "address",
          "name": "",
          "type": "address"
        }
      ],
      "stateMutability": "view",
      "type": "function"
    },
    {
      "inputs": [],
      "name": "renounceOwnership",
      "outputs": [],
      "stateMutability": "nonpayable",
      "type": "function"
    },
    {
      "inputs": [
        {
          "internalType": "address",
          "name": "from",
          "type": "address"
        },
        {
          "internalType": "address",
          "name": "to",
          "type": "address"
        },
        {
          "internalType": "uint256",
          "name": "tokenId",
          "type": "uint256"
        }
      ],
      "name": "safeTransferFrom",
      "outputs": [],
      "stateMutability": "nonpayable",
      "type": "function"
    },
    {
      "inputs": [
        {
          "internalType": "address",
          "name": "from",
          "type": "address"
        },
        {
          "internalType": "address",
          "name": "to",
          "type": "address"
        },
        {
          "internalType": "uint256",
          "name": "tokenId",
          "type": "uint256"
        },
        {
          "internalType": "bytes",
          "name": "_data",
          "type": "bytes"
        }
      ],
      "name": "safeTransferFrom",
      "outputs": [],
      "stateMutability": "nonpayable",
      "type": "function"
    },
    {
      "inputs": [
        {
          "internalType": "address",
          "name": "operator",
          "type": "address"
        },
        {
          "internalType": "bool",
          "name": "approved",
          "type": "bool"
        }
      ],
      "name": "setApprovalForAll",
      "outputs": [],
      "stateMutability": "nonpayable",
      "type": "function"
    },
    {
      "inputs": [
        {
          "internalType": "bytes4",
          "name": "interfaceId",
          "type": "bytes4"
        }
      ],
      "name": "supportsInterface",
      "outputs": [
        {
          "internalType": "bool",
          "name": "",
          "type": "bool"
        }
      ],
      "stateMutability": "view",
      "type": "function"
    },
    {
      "inputs": [],
      "name": "symbol",
      "outputs": [
        {
          "internalType": "string",
          "name": "",
          "type": "string"
        }
      ],
      "stateMutability": "view",
      "type": "function"
    },
    {
      "inputs": [
        {
          "internalType": "uint256",
          "name": "index",
          "type": "uint256"
        }
      ],
      "name": "tokenByIndex",
      "outputs": [
        {
          "internalType": "uint256",
          "name": "",
          "type": "uint256"
        }
      ],
      "stateMutability": "view",
      "type": "function"
    },
    {
      "inputs": [
        {
          "internalType": "address",
          "name": "owner",
          "type": "address"
        },
        {
          "internalType": "uint256",
          "name": "index",
          "type": "uint256"
        }
      ],
      "name": "tokenOfOwnerByIndex",
      "outputs": [
        {
          "internalType": "uint256",
          "name": "",
          "type": "uint256"
        }
      ],
      "stateMutability": "view",
      "type": "function"
    },
    {
      "inputs": [
        {
          "internalType": "uint256",
          "name": "tokenId",
          "type": "uint256"
        }
      ],
      "name": "tokenURI",
      "outputs": [
        {
          "internalType": "string",
          "name": "",
          "type": "string"
        }
      ],
      "stateMutability": "view",
      "type": "function"
    },
    {
      "inputs": [],
      "name": "totalSupply",
      "outputs": [
        {
          "internalType": "uint256",
          "name": "",
          "type": "uint256"
        }
      ],
      "stateMutability": "view",
      "type": "function"
    },
    {
      "inputs": [
        {
          "internalType": "address",
          "name": "from",
          "type": "address"
        },
        {
          "internalType": "address",
          "name": "to",
          "type": "address"
        },
        {
          "internalType": "uint256",
          "name": "tokenId",
          "type": "uint256"
        }
      ],
      "name": "transferFrom",
      "outputs": [],
      "stateMutability": "nonpayable",
      "type": "function"
    },
    {
      "inputs": [
        {
          "internalType": "address",
          "name": "newOwner",
          "type": "address"
        }
      ],
      "name": "transferOwnership",
      "outputs": [],
      "stateMutability": "nonpayable",
      "type": "function"
    },
    {
      "inputs": [],
      "name": "getOriginalCreator",
      "outputs": [
        {
          "internalType": "address",
          "name": "",
          "type": "address"
        }
      ],
      "stateMutability": "view",
      "type": "function"
    },
    {
      "inputs": [
        {
          "internalType": "uint256",
          "name": "amount",
          "type": "uint256"
        }
      ],
      "name": "buy",
      "outputs": [],
      "stateMutability": "payable",
      "type": "function"
    },
    {
      "inputs": [],
      "name": "withdrawAll",
      "outputs": [],
      "stateMutability": "nonpayable",
      "type": "function"
    }
  ],
  "bytecode": "0x60806040523480156200001157600080fd5b506040516200514538038062005145833981810160405281019062000037919062001012565b878781600090816200004a91906200138f565b5080600190816200005c91906200138f565b5050506200007f62000073620001cc60201b60201c565b620001d460201b60201c565b8581846200008e9190620014a5565b10620000d1576040517f08c379a0000000000000000000000000000000000000000000000000000000008152600401620000c89062001589565b60405180910390fd5b88600b9081620000e291906200138f565b5083600c60006101000a81548173ffffffffffffffffffffffffffffffffffffffff021916908373ffffffffffffffffffffffffffffffffffffffff16021790555085600d8190555084600e8190555060005b8381101562000166576200015085826200029a60201b60201c565b80806200015d90620015ab565b91505062000135565b5060008390505b81846200017b9190620014a5565b811015620001ab576200019583826200029a60201b60201c565b8080620001a290620015ab565b9150506200016d565b50620001bd82620002c060201b60201c565b50505050505050505062001b11565b600033905090565b6000600a60009054906101000a900473ffffffffffffffffffffffffffffffffffffffff16905081600a60006101000a81548173ffffffffffffffffffffffffffffffffffffffff021916908373ffffffffffffffffffffffffffffffffffffffff1602179055508173ffffffffffffffffffffffffffffffffffffffff168173ffffffffffffffffffffffffffffffffffffffff167f8be0079c531659141344cd1fd0a4f28419497f9722a3daafe3b4186f6b6457e060405160405180910390a35050565b620002bc828260405180602001604052806000815250620003d560201b60201c565b5050565b620002d0620001cc60201b60201c565b73ffffffffffffffffffffffffffffffffffffffff16620002f66200044360201b60201c565b73ffffffffffffffffffffffffffffffffffffffff16146200034f576040517f08c379a0000000000000000000000000000000000000000000000000000000008152600401620003469062001648565b60405180910390fd5b600073ffffffffffffffffffffffffffffffffffffffff168173ffffffffffffffffffffffffffffffffffffffff1603620003c1576040517f08c379a0000000000000000000000000000000000000000000000000000000008152600401620003b890620016e0565b60405180910390fd5b620003d281620001d460201b60201c565b50565b620003e783836200046d60201b60201c565b620003fc60008484846200066660201b60201c565b6200043e576040517f08c379a0000000000000000000000000000000000000000000000000000000008152600401620004359062001778565b60405180910390fd5b505050565b6000600a60009054906101000a900473ffffffffffffffffffffffffffffffffffffffff16905090565b600073ffffffffffffffffffffffffffffffffffffffff168273ffffffffffffffffffffffffffffffffffffffff1603620004df576040517f08c379a0000000000000000000000000000000000000000000000000000000008152600401620004d690620017ea565b60405180910390fd5b620004f0816200080f60201b60201c565b1562000533576040517f08c379a00000000000000000000000000000000000000000000000000000000081526004016200052a906200185c565b60405180910390fd5b62000547600083836200087b60201b60201c565b6001600360008473ffffffffffffffffffffffffffffffffffffffff1673ffffffffffffffffffffffffffffffffffffffff1681526020019081526020016000206000828254620005999190620014a5565b92505081905550816002600083815260200190815260200160002060006101000a81548173ffffffffffffffffffffffffffffffffffffffff021916908373ffffffffffffffffffffffffffffffffffffffff160217905550808273ffffffffffffffffffffffffffffffffffffffff16600073ffffffffffffffffffffffffffffffffffffffff167fddf252ad1be2c89b69c2b068fc378daa952ba7f163c4a11628f55a4df523b3ef60405160405180910390a46200066260008383620009c060201b60201c565b5050565b6000620006948473ffffffffffffffffffffffffffffffffffffffff16620009c560201b620010371760201c565b1562000802578373ffffffffffffffffffffffffffffffffffffffff1663150b7a02620006c6620001cc60201b60201c565b8786866040518563ffffffff1660e01b8152600401620006ea9493929190620018fd565b6020604051808303816000875af19250505080156200072957506040513d601f19601f82011682018060405250810190620007269190620019ae565b60015b620007b1573d80600081146200075c576040519150601f19603f3d011682016040523d82523d6000602084013e62000761565b606091505b506000815103620007a9576040517f08c379a0000000000000000000000000000000000000000000000000000000008152600401620007a09062001778565b60405180910390fd5b805181602001fd5b63150b7a0260e01b7bffffffffffffffffffffffffffffffffffffffffffffffffffffffff1916817bffffffffffffffffffffffffffffffffffffffffffffffffffffffff19161491505062000807565b600190505b949350505050565b60008073ffffffffffffffffffffffffffffffffffffffff166002600084815260200190815260200160002060009054906101000a900473ffffffffffffffffffffffffffffffffffffffff1673ffffffffffffffffffffffffffffffffffffffff1614159050919050565b62000893838383620009e860201b6200105a1760201c565b600073ffffffffffffffffffffffffffffffffffffffff168373ffffffffffffffffffffffffffffffffffffffff1603620008df57620008d981620009ed60201b60201c565b62000927565b8173ffffffffffffffffffffffffffffffffffffffff168373ffffffffffffffffffffffffffffffffffffffff1614620009265762000925838262000a3660201b60201c565b5b5b600073ffffffffffffffffffffffffffffffffffffffff168273ffffffffffffffffffffffffffffffffffffffff160362000973576200096d8162000bb360201b60201c565b620009bb565b8273ffffffffffffffffffffffffffffffffffffffff168273ffffffffffffffffffffffffffffffffffffffff1614620009ba57620009b9828262000c8f60201b60201c565b5b5b505050565b505050565b6000808273ffffffffffffffffffffffffffffffffffffffff163b119050919050565b505050565b6008805490506009600083815260200190815260200160002081905550600881908060018154018082558091505060019003906000526020600020016000909190919091505550565b6000600162000a508462000d1b60201b62000a5f1760201c565b62000a5c9190620019e0565b905060006007600084815260200190815260200160002054905081811462000b42576000600660008673ffffffffffffffffffffffffffffffffffffffff1673ffffffffffffffffffffffffffffffffffffffff168152602001908152602001600020600084815260200190815260200160002054905080600660008773ffffffffffffffffffffffffffffffffffffffff1673ffffffffffffffffffffffffffffffffffffffff168152602001908152602001600020600084815260200190815260200160002081905550816007600083815260200190815260200160002081905550505b6007600084815260200190815260200160002060009055600660008573ffffffffffffffffffffffffffffffffffffffff1673ffffffffffffffffffffffffffffffffffffffff16815260200190815260200160002060008381526020019081526020016000206000905550505050565b6000600160088054905062000bc99190620019e0565b905060006009600084815260200190815260200160002054905060006008838154811062000bfc5762000bfb62001a1b565b5b90600052602060002001549050806008838154811062000c215762000c2062001a1b565b5b90600052602060002001819055508160096000838152602001908152602001600020819055506009600085815260200190815260200160002060009055600880548062000c735762000c7262001a4a565b5b6001900381819060005260206000200160009055905550505050565b600062000ca78362000d1b60201b62000a5f1760201c565b905081600660008573ffffffffffffffffffffffffffffffffffffffff1673ffffffffffffffffffffffffffffffffffffffff168152602001908152602001600020600083815260200190815260200160002081905550806007600084815260200190815260200160002081905550505050565b60008073ffffffffffffffffffffffffffffffffffffffff168273ffffffffffffffffffffffffffffffffffffffff160362000d8e576040517f08c379a000000000000000000000000000000000000000000000000000000000815260040162000d859062001aef565b60405180910390fd5b600360008373ffffffffffffffffffffffffffffffffffffffff1673ffffffffffffffffffffffffffffffffffffffff168152602001908152602001600020549050919050565b6000604051905090565b600080fd5b600080fd5b600080fd5b600080fd5b6000601f19601f8301169050919050565b7f4e487b7100000000000000000000000000000000000000000000000000000000600052604160045260246000fd5b62000e3e8262000df3565b810181811067ffffffffffffffff8211171562000e605762000e5f62000e04565b5b80604052505050565b600062000e7562000dd5565b905062000e83828262000e33565b919050565b600067ffffffffffffffff82111562000ea65762000ea562000e04565b5b62000eb18262000df3565b9050602081019050919050565b60005b8381101562000ede57808201518184015260208101905062000ec1565b8381111562000eee576000848401525b50505050565b600062000f0b62000f058462000e88565b62000e69565b90508281526020810184848401111562000f2a5762000f2962000dee565b5b62000f3784828562000ebe565b509392505050565b600082601f83011262000f575762000f5662000de9565b5b815162000f6984826020860162000ef4565b91505092915050565b6000819050919050565b62000f878162000f72565b811462000f9357600080fd5b50565b60008151905062000fa78162000f7c565b92915050565b600073ffffffffffffffffffffffffffffffffffffffff82169050919050565b600062000fda8262000fad565b9050919050565b62000fec8162000fcd565b811462000ff857600080fd5b50565b6000815190506200100c8162000fe1565b92915050565b60008060008060008060008060006101208a8c03121562001038576200103762000ddf565b5b60008a015167ffffffffffffffff81111562001059576200105862000de4565b5b620010678c828d0162000f3f565b99505060208a015167ffffffffffffffff8111156200108b576200108a62000de4565b5b620010998c828d0162000f3f565b98505060408a015167ffffffffffffffff811115620010bd57620010bc62000de4565b5b620010cb8c828d0162000f3f565b9750506060620010de8c828d0162000f96565b9650506080620010f18c828d0162000f96565b95505060a0620011048c828d0162000ffb565b94505060c0620011178c828d0162000f96565b93505060e06200112a8c828d0162000ffb565b9250506101006200113e8c828d0162000f96565b9150509295985092959850929598565b600081519050919050565b7f4e487b7100000000000000000000000000000000000000000000000000000000600052602260045260246000fd5b60006002820490506001821680620011a157607f821691505b602082108103620011b757620011b662001159565b5b50919050565b60008190508160005260206000209050919050565b60006020601f8301049050919050565b600082821b905092915050565b600060088302620012217fffffffffffffffffffffffffffffffffffffffffffffffffffffffffffffffff82620011e2565b6200122d8683620011e2565b95508019841693508086168417925050509392505050565b6000819050919050565b6000620012706200126a620012648462000f72565b62001245565b62000f72565b9050919050565b6000819050919050565b6200128c836200124f565b620012a46200129b8262001277565b848454620011ef565b825550505050565b600090565b620012bb620012ac565b620012c881848462001281565b505050565b5b81811015620012f057620012e4600082620012b1565b600181019050620012ce565b5050565b601f8211156200133f576200130981620011bd565b6200131484620011d2565b8101602085101562001324578190505b6200133c6200133385620011d2565b830182620012cd565b50505b505050565b600082821c905092915050565b6000620013646000198460080262001344565b1980831691505092915050565b60006200137f838362001351565b9150826002028217905092915050565b6200139a826200114e565b67ffffffffffffffff811115620013b657620013b562000e04565b5b620013c2825462001188565b620013cf828285620012f4565b600060209050601f831160018114620014075760008415620013f2578287015190505b620013fe858262001371565b8655506200146e565b601f1984166200141786620011bd565b60005b8281101562001441578489015182556001820191506020850194506020810190506200141a565b868310156200146157848901516200145d601f89168262001351565b8355505b6001600288020188555050505b505050505050565b7f4e487b7100000000000000000000000000000000000000000000000000000000600052601160045260246000fd5b6000620014b28262000f72565b9150620014bf8362000f72565b9250827fffffffffffffffffffffffffffffffffffffffffffffffffffffffffffffffff03821115620014f757620014f662001476565b5b828201905092915050565b600082825260208201905092915050565b7f4e6f7420656e6f75676820737570706c7920746f206d696e742063726561746f60008201527f7220616e642064657269766174652063726561746f7220746f6b656e732e0000602082015250565b600062001571603e8362001502565b91506200157e8262001513565b604082019050919050565b60006020820190508181036000830152620015a48162001562565b9050919050565b6000620015b88262000f72565b91507fffffffffffffffffffffffffffffffffffffffffffffffffffffffffffffffff8203620015ed57620015ec62001476565b5b600182019050919050565b7f4f776e61626c653a2063616c6c6572206973206e6f7420746865206f776e6572600082015250565b60006200163060208362001502565b91506200163d82620015f8565b602082019050919050565b60006020820190508181036000830152620016638162001621565b9050919050565b7f4f776e61626c653a206e6577206f776e657220697320746865207a65726f206160008201527f6464726573730000000000000000000000000000000000000000000000000000602082015250565b6000620016c860268362001502565b9150620016d5826200166a565b604082019050919050565b60006020820190508181036000830152620016fb81620016b9565b9050919050565b7f4552433732313a207472616e7366657220746f206e6f6e20455243373231526560008201527f63656976657220696d706c656d656e7465720000000000000000000000000000602082015250565b60006200176060328362001502565b91506200176d8262001702565b604082019050919050565b60006020820190508181036000830152620017938162001751565b9050919050565b7f4552433732313a206d696e7420746f20746865207a65726f2061646472657373600082015250565b6000620017d260208362001502565b9150620017df826200179a565b602082019050919050565b600060208201905081810360008301526200180581620017c3565b9050919050565b7f4552433732313a20746f6b656e20616c7265616479206d696e74656400000000600082015250565b600062001844601c8362001502565b915062001851826200180c565b602082019050919050565b60006020820190508181036000830152620018778162001835565b9050919050565b620018898162000fcd565b82525050565b6200189a8162000f72565b82525050565b600081519050919050565b600082825260208201905092915050565b6000620018c982620018a0565b620018d58185620018ab565b9350620018e781856020860162000ebe565b620018f28162000df3565b840191505092915050565b60006080820190506200191460008301876200187e565b6200192360208301866200187e565b6200193260408301856200188f565b8181036060830152620019468184620018bc565b905095945050505050565b60007fffffffff0000000000000000000000000000000000000000000000000000000082169050919050565b620019888162001951565b81146200199457600080fd5b50565b600081519050620019a8816200197d565b92915050565b600060208284031215620019c757620019c662000ddf565b5b6000620019d78482850162001997565b91505092915050565b6000620019ed8262000f72565b9150620019fa8362000f72565b92508282101562001a105762001a0f62001476565b5b828203905092915050565b7f4e487b7100000000000000000000000000000000000000000000000000000000600052603260045260246000fd5b7f4e487b7100000000000000000000000000000000000000000000000000000000600052603160045260246000fd5b7f4552433732313a2062616c616e636520717565727920666f7220746865207a6560008201527f726f206164647265737300000000000000000000000000000000000000000000602082015250565b600062001ad7602a8362001502565b915062001ae48262001a79565b604082019050919050565b6000602082019050818103600083015262001b0a8162001ac8565b9050919050565b6136248062001b216000396000f3fe6080604052600436106101355760003560e01c806370a08231116100ab578063a22cb4651161006f578063a22cb46514610428578063b88d4fde14610451578063c87b56dd1461047a578063d96a094a146104b7578063e985e9c5146104d3578063f2fde38b1461051057610135565b806370a0823114610367578063715018a6146103a4578063853828b6146103bb5780638da5cb5b146103d257806395d89b41146103fd57610135565b806318160ddd116100fd57806318160ddd1461023357806323b872dd1461025e5780632f745c591461028757806342842e0e146102c45780634f6ccce7146102ed5780636352211e1461032a57610135565b806301ffc9a71461013a57806306fdde0314610177578063081812fc146101a2578063095ea7b3146101df5780630fc3a32c14610208575b600080fd5b34801561014657600080fd5b50610161600480360381019061015c91906122fe565b610539565b60405161016e9190612346565b60405180910390f35b34801561018357600080fd5b5061018c6105b3565b60405161019991906123fa565b60405180910390f35b3480156101ae57600080fd5b506101c960048036038101906101c49190612452565b610645565b6040516101d691906124c0565b60405180910390f35b3480156101eb57600080fd5b5061020660048036038101906102019190612507565b6106ca565b005b34801561021457600080fd5b5061021d6107e1565b60405161022a91906124c0565b60405180910390f35b34801561023f57600080fd5b5061024861080b565b6040516102559190612556565b60405180910390f35b34801561026a57600080fd5b5061028560048036038101906102809190612571565b610818565b005b34801561029357600080fd5b506102ae60048036038101906102a99190612507565b610878565b6040516102bb9190612556565b60405180910390f35b3480156102d057600080fd5b506102eb60048036038101906102e69190612571565b61091d565b005b3480156102f957600080fd5b50610314600480360381019061030f9190612452565b61093d565b6040516103219190612556565b60405180910390f35b34801561033657600080fd5b50610351600480360381019061034c9190612452565b6109ae565b60405161035e91906124c0565b60405180910390f35b34801561037357600080fd5b5061038e600480360381019061038991906125c4565b610a5f565b60405161039b9190612556565b60405180910390f35b3480156103b057600080fd5b506103b9610b16565b005b3480156103c757600080fd5b506103d0610b9e565b005b3480156103de57600080fd5b506103e7610c5a565b6040516103f491906124c0565b60405180910390f35b34801561040957600080fd5b50610412610c84565b60405161041f91906123fa565b60405180910390f35b34801561043457600080fd5b5061044f600480360381019061044a919061261d565b610d16565b005b34801561045d57600080fd5b5061047860048036038101906104739190612792565b610d2c565b005b34801561048657600080fd5b506104a1600480360381019061049c9190612452565b610d8e565b6040516104ae91906123fa565b60405180910390f35b6104d160048036038101906104cc9190612452565b610e35565b005b3480156104df57600080fd5b506104fa60048036038101906104f59190612815565b610eac565b6040516105079190612346565b60405180910390f35b34801561051c57600080fd5b50610537600480360381019061053291906125c4565b610f40565b005b60007f780e9d63000000000000000000000000000000000000000000000000000000007bffffffffffffffffffffffffffffffffffffffffffffffffffffffff1916827bffffffffffffffffffffffffffffffffffffffffffffffffffffffff191614806105ac57506105ab8261105f565b5b9050919050565b6060600080546105c290612884565b80601f01602080910402602001604051908101604052809291908181526020018280546105ee90612884565b801561063b5780601f106106105761010080835404028352916020019161063b565b820191906000526020600020905b81548152906001019060200180831161061e57829003601f168201915b5050505050905090565b600061065082611141565b61068f576040517f08c379a000000000000000000000000000000000000000000000000000000000815260040161068690612927565b60405180910390fd5b6004600083815260200190815260200160002060009054906101000a900473ffffffffffffffffffffffffffffffffffffffff169050919050565b60006106d5826109ae565b90508073ffffffffffffffffffffffffffffffffffffffff168373ffffffffffffffffffffffffffffffffffffffff1603610745576040517f08c379a000000000000000000000000000000000000000000000000000000000815260040161073c906129b9565b60405180910390fd5b8073ffffffffffffffffffffffffffffffffffffffff166107646111ad565b73ffffffffffffffffffffffffffffffffffffffff16148061079357506107928161078d6111ad565b610eac565b5b6107d2576040517f08c379a00000000000000000000000000000000000000000000000000000000081526004016107c990612a4b565b60405180910390fd5b6107dc83836111b5565b505050565b6000600c60009054906101000a900473ffffffffffffffffffffffffffffffffffffffff16905090565b6000600880549050905090565b6108296108236111ad565b8261126e565b610868576040517f08c379a000000000000000000000000000000000000000000000000000000000815260040161085f90612add565b60405180910390fd5b61087383838361134c565b505050565b600061088383610a5f565b82106108c4576040517f08c379a00000000000000000000000000000000000000000000000000000000081526004016108bb90612b6f565b60405180910390fd5b600660008473ffffffffffffffffffffffffffffffffffffffff1673ffffffffffffffffffffffffffffffffffffffff168152602001908152602001600020600083815260200190815260200160002054905092915050565b61093883838360405180602001604052806000815250610d2c565b505050565b600061094761080b565b8210610988576040517f08c379a000000000000000000000000000000000000000000000000000000000815260040161097f90612c01565b60405180910390fd5b6008828154811061099c5761099b612c21565b5b90600052602060002001549050919050565b6000806002600084815260200190815260200160002060009054906101000a900473ffffffffffffffffffffffffffffffffffffffff169050600073ffffffffffffffffffffffffffffffffffffffff168173ffffffffffffffffffffffffffffffffffffffff1603610a56576040517f08c379a0000000000000000000000000000000000000000000000000000000008152600401610a4d90612cc2565b60405180910390fd5b80915050919050565b60008073ffffffffffffffffffffffffffffffffffffffff168273ffffffffffffffffffffffffffffffffffffffff1603610acf576040517f08c379a0000000000000000000000000000000000000000000000000000000008152600401610ac690612d54565b60405180910390fd5b600360008373ffffffffffffffffffffffffffffffffffffffff1673ffffffffffffffffffffffffffffffffffffffff168152602001908152602001600020549050919050565b610b1e6111ad565b73ffffffffffffffffffffffffffffffffffffffff16610b3c610c5a565b73ffffffffffffffffffffffffffffffffffffffff1614610b92576040517f08c379a0000000000000000000000000000000000000000000000000000000008152600401610b8990612dc0565b60405180910390fd5b610b9c60006115b2565b565b610ba66111ad565b73ffffffffffffffffffffffffffffffffffffffff16610bc4610c5a565b73ffffffffffffffffffffffffffffffffffffffff1614610c1a576040517f08c379a0000000000000000000000000000000000000000000000000000000008152600401610c1190612dc0565b60405180910390fd5b3373ffffffffffffffffffffffffffffffffffffffff166108fc479081150290604051600060405180830381858888f19350505050610c5857600080fd5b565b6000600a60009054906101000a900473ffffffffffffffffffffffffffffffffffffffff16905090565b606060018054610c9390612884565b80601f0160208091040260200160405190810160405280929190818152602001828054610cbf90612884565b8015610d0c5780601f10610ce157610100808354040283529160200191610d0c565b820191906000526020600020905b815481529060010190602001808311610cef57829003601f168201915b5050505050905090565b610d28610d216111ad565b8383611678565b5050565b610d3d610d376111ad565b8361126e565b610d7c576040517f08c379a0000000000000000000000000000000000000000000000000000000008152600401610d7390612add565b60405180910390fd5b610d88848484846117e4565b50505050565b6060610d9982611141565b610dd8576040517f08c379a0000000000000000000000000000000000000000000000000000000008152600401610dcf90612e52565b60405180910390fd5b6000610de2611840565b90506000815111610e025760405180602001604052806000815250610e2d565b80610e0c846118d2565b604051602001610e1d929190612eae565b6040516020818303038152906040525b915050919050565b6000610e3f61080b565b9050600e5482610e4f9190612f01565b341015610e5b57600080fd5b600d548282610e6a9190612f5b565b10610e7457600080fd5b60005b82811015610ea757610e94338284610e8f9190612f5b565b611a32565b8080610e9f90612fb1565b915050610e77565b505050565b6000600560008473ffffffffffffffffffffffffffffffffffffffff1673ffffffffffffffffffffffffffffffffffffffff16815260200190815260200160002060008373ffffffffffffffffffffffffffffffffffffffff1673ffffffffffffffffffffffffffffffffffffffff16815260200190815260200160002060009054906101000a900460ff16905092915050565b610f486111ad565b73ffffffffffffffffffffffffffffffffffffffff16610f66610c5a565b73ffffffffffffffffffffffffffffffffffffffff1614610fbc576040517f08c379a0000000000000000000000000000000000000000000000000000000008152600401610fb390612dc0565b60405180910390fd5b600073ffffffffffffffffffffffffffffffffffffffff168173ffffffffffffffffffffffffffffffffffffffff160361102b576040517f08c379a00000000000000000000000000000000000000000000000000000000081526004016110229061306b565b60405180910390fd5b611034816115b2565b50565b6000808273ffffffffffffffffffffffffffffffffffffffff163b119050919050565b505050565b60007f80ac58cd000000000000000000000000000000000000000000000000000000007bffffffffffffffffffffffffffffffffffffffffffffffffffffffff1916827bffffffffffffffffffffffffffffffffffffffffffffffffffffffff1916148061112a57507f5b5e139f000000000000000000000000000000000000000000000000000000007bffffffffffffffffffffffffffffffffffffffffffffffffffffffff1916827bffffffffffffffffffffffffffffffffffffffffffffffffffffffff1916145b8061113a575061113982611a50565b5b9050919050565b60008073ffffffffffffffffffffffffffffffffffffffff166002600084815260200190815260200160002060009054906101000a900473ffffffffffffffffffffffffffffffffffffffff1673ffffffffffffffffffffffffffffffffffffffff1614159050919050565b600033905090565b816004600083815260200190815260200160002060006101000a81548173ffffffffffffffffffffffffffffffffffffffff021916908373ffffffffffffffffffffffffffffffffffffffff160217905550808273ffffffffffffffffffffffffffffffffffffffff16611228836109ae565b73ffffffffffffffffffffffffffffffffffffffff167f8c5be1e5ebec7d5bd14f71427d1e84f3dd0314c0f7b2291e5b200ac8c7c3b92560405160405180910390a45050565b600061127982611141565b6112b8576040517f08c379a00000000000000000000000000000000000000000000000000000000081526004016112af906130fd565b60405180910390fd5b60006112c3836109ae565b90508073ffffffffffffffffffffffffffffffffffffffff168473ffffffffffffffffffffffffffffffffffffffff16148061130557506113048185610eac565b5b8061134357508373ffffffffffffffffffffffffffffffffffffffff1661132b84610645565b73ffffffffffffffffffffffffffffffffffffffff16145b91505092915050565b8273ffffffffffffffffffffffffffffffffffffffff1661136c826109ae565b73ffffffffffffffffffffffffffffffffffffffff16146113c2576040517f08c379a00000000000000000000000000000000000000000000000000000000081526004016113b99061318f565b60405180910390fd5b600073ffffffffffffffffffffffffffffffffffffffff168273ffffffffffffffffffffffffffffffffffffffff1603611431576040517f08c379a000000000000000000000000000000000000000000000000000000000815260040161142890613221565b60405180910390fd5b61143c838383611aba565b6114476000826111b5565b6001600360008573ffffffffffffffffffffffffffffffffffffffff1673ffffffffffffffffffffffffffffffffffffffff16815260200190815260200160002060008282546114979190613241565b925050819055506001600360008473ffffffffffffffffffffffffffffffffffffffff1673ffffffffffffffffffffffffffffffffffffffff16815260200190815260200160002060008282546114ee9190612f5b565b92505081905550816002600083815260200190815260200160002060006101000a81548173ffffffffffffffffffffffffffffffffffffffff021916908373ffffffffffffffffffffffffffffffffffffffff160217905550808273ffffffffffffffffffffffffffffffffffffffff168473ffffffffffffffffffffffffffffffffffffffff167fddf252ad1be2c89b69c2b068fc378daa952ba7f163c4a11628f55a4df523b3ef60405160405180910390a46115ad838383611bcc565b505050565b6000600a60009054906101000a900473ffffffffffffffffffffffffffffffffffffffff16905081600a60006101000a81548173ffffffffffffffffffffffffffffffffffffffff021916908373ffffffffffffffffffffffffffffffffffffffff1602179055508173ffffffffffffffffffffffffffffffffffffffff168173ffffffffffffffffffffffffffffffffffffffff167f8be0079c531659141344cd1fd0a4f28419497f9722a3daafe3b4186f6b6457e060405160405180910390a35050565b8173ffffffffffffffffffffffffffffffffffffffff168373ffffffffffffffffffffffffffffffffffffffff16036116e6576040517f08c379a00000000000000000000000000000000000000000000000000000000081526004016116dd906132c1565b60405180910390fd5b80600560008573ffffffffffffffffffffffffffffffffffffffff1673ffffffffffffffffffffffffffffffffffffffff16815260200190815260200160002060008473ffffffffffffffffffffffffffffffffffffffff1673ffffffffffffffffffffffffffffffffffffffff16815260200190815260200160002060006101000a81548160ff0219169083151502179055508173ffffffffffffffffffffffffffffffffffffffff168373ffffffffffffffffffffffffffffffffffffffff167f17307eab39ab6107e8899845ad3d59bd9653f200f220920489ca2b5937696c31836040516117d79190612346565b60405180910390a3505050565b6117ef84848461134c565b6117fb84848484611bd1565b61183a576040517f08c379a000000000000000000000000000000000000000000000000000000000815260040161183190613353565b60405180910390fd5b50505050565b6060600b805461184f90612884565b80601f016020809104026020016040519081016040528092919081815260200182805461187b90612884565b80156118c85780601f1061189d576101008083540402835291602001916118c8565b820191906000526020600020905b8154815290600101906020018083116118ab57829003601f168201915b5050505050905090565b606060008203611919576040518060400160405280600181526020017f30000000000000000000000000000000000000000000000000000000000000008152509050611a2d565b600082905060005b6000821461194b57808061193490612fb1565b915050600a8261194491906133a2565b9150611921565b60008167ffffffffffffffff81111561196757611966612667565b5b6040519080825280601f01601f1916602001820160405280156119995781602001600182028036833780820191505090505b5090505b60008514611a26576001826119b29190613241565b9150600a856119c191906133d3565b60306119cd9190612f5b565b60f81b8183815181106119e3576119e2612c21565b5b60200101907effffffffffffffffffffffffffffffffffffffffffffffffffffffffffffff1916908160001a905350600a85611a1f91906133a2565b945061199d565b8093505050505b919050565b611a4c828260405180602001604052806000815250611d58565b5050565b60007f01ffc9a7000000000000000000000000000000000000000000000000000000007bffffffffffffffffffffffffffffffffffffffffffffffffffffffff1916827bffffffffffffffffffffffffffffffffffffffffffffffffffffffff1916149050919050565b611ac583838361105a565b600073ffffffffffffffffffffffffffffffffffffffff168373ffffffffffffffffffffffffffffffffffffffff1603611b0757611b0281611db3565b611b46565b8173ffffffffffffffffffffffffffffffffffffffff168373ffffffffffffffffffffffffffffffffffffffff1614611b4557611b448382611dfc565b5b5b600073ffffffffffffffffffffffffffffffffffffffff168273ffffffffffffffffffffffffffffffffffffffff1603611b8857611b8381611f69565b611bc7565b8273ffffffffffffffffffffffffffffffffffffffff168273ffffffffffffffffffffffffffffffffffffffff1614611bc657611bc5828261203a565b5b5b505050565b505050565b6000611bf28473ffffffffffffffffffffffffffffffffffffffff16611037565b15611d4b578373ffffffffffffffffffffffffffffffffffffffff1663150b7a02611c1b6111ad565b8786866040518563ffffffff1660e01b8152600401611c3d9493929190613459565b6020604051808303816000875af1925050508015611c7957506040513d601f19601f82011682018060405250810190611c7691906134ba565b60015b611cfb573d8060008114611ca9576040519150601f19603f3d011682016040523d82523d6000602084013e611cae565b606091505b506000815103611cf3576040517f08c379a0000000000000000000000000000000000000000000000000000000008152600401611cea90613353565b60405180910390fd5b805181602001fd5b63150b7a0260e01b7bffffffffffffffffffffffffffffffffffffffffffffffffffffffff1916817bffffffffffffffffffffffffffffffffffffffffffffffffffffffff191614915050611d50565b600190505b949350505050565b611d6283836120b9565b611d6f6000848484611bd1565b611dae576040517f08c379a0000000000000000000000000000000000000000000000000000000008152600401611da590613353565b60405180910390fd5b505050565b6008805490506009600083815260200190815260200160002081905550600881908060018154018082558091505060019003906000526020600020016000909190919091505550565b60006001611e0984610a5f565b611e139190613241565b9050600060076000848152602001908152602001600020549050818114611ef8576000600660008673ffffffffffffffffffffffffffffffffffffffff1673ffffffffffffffffffffffffffffffffffffffff168152602001908152602001600020600084815260200190815260200160002054905080600660008773ffffffffffffffffffffffffffffffffffffffff1673ffffffffffffffffffffffffffffffffffffffff168152602001908152602001600020600084815260200190815260200160002081905550816007600083815260200190815260200160002081905550505b6007600084815260200190815260200160002060009055600660008573ffffffffffffffffffffffffffffffffffffffff1673ffffffffffffffffffffffffffffffffffffffff16815260200190815260200160002060008381526020019081526020016000206000905550505050565b60006001600880549050611f7d9190613241565b9050600060096000848152602001908152602001600020549050600060088381548110611fad57611fac612c21565b5b906000526020600020015490508060088381548110611fcf57611fce612c21565b5b90600052602060002001819055508160096000838152602001908152602001600020819055506009600085815260200190815260200160002060009055600880548061201e5761201d6134e7565b5b6001900381819060005260206000200160009055905550505050565b600061204583610a5f565b905081600660008573ffffffffffffffffffffffffffffffffffffffff1673ffffffffffffffffffffffffffffffffffffffff168152602001908152602001600020600083815260200190815260200160002081905550806007600084815260200190815260200160002081905550505050565b600073ffffffffffffffffffffffffffffffffffffffff168273ffffffffffffffffffffffffffffffffffffffff1603612128576040517f08c379a000000000000000000000000000000000000000000000000000000000815260040161211f90613562565b60405180910390fd5b61213181611141565b15612171576040517f08c379a0000000000000000000000000000000000000000000000000000000008152600401612168906135ce565b60405180910390fd5b61217d60008383611aba565b6001600360008473ffffffffffffffffffffffffffffffffffffffff1673ffffffffffffffffffffffffffffffffffffffff16815260200190815260200160002060008282546121cd9190612f5b565b92505081905550816002600083815260200190815260200160002060006101000a81548173ffffffffffffffffffffffffffffffffffffffff021916908373ffffffffffffffffffffffffffffffffffffffff160217905550808273ffffffffffffffffffffffffffffffffffffffff16600073ffffffffffffffffffffffffffffffffffffffff167fddf252ad1be2c89b69c2b068fc378daa952ba7f163c4a11628f55a4df523b3ef60405160405180910390a461228e60008383611bcc565b5050565b6000604051905090565b600080fd5b600080fd5b60007fffffffff0000000000000000000000000000000000000000000000000000000082169050919050565b6122db816122a6565b81146122e657600080fd5b50565b6000813590506122f8816122d2565b92915050565b6000602082840312156123145761231361229c565b5b6000612322848285016122e9565b91505092915050565b60008115159050919050565b6123408161232b565b82525050565b600060208201905061235b6000830184612337565b92915050565b600081519050919050565b600082825260208201905092915050565b60005b8381101561239b578082015181840152602081019050612380565b838111156123aa576000848401525b50505050565b6000601f19601f8301169050919050565b60006123cc82612361565b6123d6818561236c565b93506123e681856020860161237d565b6123ef816123b0565b840191505092915050565b6000602082019050818103600083015261241481846123c1565b905092915050565b6000819050919050565b61242f8161241c565b811461243a57600080fd5b50565b60008135905061244c81612426565b92915050565b6000602082840312156124685761246761229c565b5b60006124768482850161243d565b91505092915050565b600073ffffffffffffffffffffffffffffffffffffffff82169050919050565b60006124aa8261247f565b9050919050565b6124ba8161249f565b82525050565b60006020820190506124d560008301846124b1565b92915050565b6124e48161249f565b81146124ef57600080fd5b50565b600081359050612501816124db565b92915050565b6000806040838503121561251e5761251d61229c565b5b600061252c858286016124f2565b925050602061253d8582860161243d565b9150509250929050565b6125508161241c565b82525050565b600060208201905061256b6000830184612547565b92915050565b60008060006060848603121561258a5761258961229c565b5b6000612598868287016124f2565b93505060206125a9868287016124f2565b92505060406125ba8682870161243d565b9150509250925092565b6000602082840312156125da576125d961229c565b5b60006125e8848285016124f2565b91505092915050565b6125fa8161232b565b811461260557600080fd5b50565b600081359050612617816125f1565b92915050565b600080604083850312156126345761263361229c565b5b6000612642858286016124f2565b925050602061265385828601612608565b9150509250929050565b600080fd5b600080fd5b7f4e487b7100000000000000000000000000000000000000000000000000000000600052604160045260246000fd5b61269f826123b0565b810181811067ffffffffffffffff821117156126be576126bd612667565b5b80604052505050565b60006126d1612292565b90506126dd8282612696565b919050565b600067ffffffffffffffff8211156126fd576126fc612667565b5b612706826123b0565b9050602081019050919050565b82818337600083830152505050565b6000612735612730846126e2565b6126c7565b90508281526020810184848401111561275157612750612662565b5b61275c848285612713565b509392505050565b600082601f8301126127795761277861265d565b5b8135612789848260208601612722565b91505092915050565b600080600080608085870312156127ac576127ab61229c565b5b60006127ba878288016124f2565b94505060206127cb878288016124f2565b93505060406127dc8782880161243d565b925050606085013567ffffffffffffffff8111156127fd576127fc6122a1565b5b61280987828801612764565b91505092959194509250565b6000806040838503121561282c5761282b61229c565b5b600061283a858286016124f2565b925050602061284b858286016124f2565b9150509250929050565b7f4e487b7100000000000000000000000000000000000000000000000000000000600052602260045260246000fd5b6000600282049050600182168061289c57607f821691505b6020821081036128af576128ae612855565b5b50919050565b7f4552433732313a20617070726f76656420717565727920666f72206e6f6e657860008201527f697374656e7420746f6b656e0000000000000000000000000000000000000000602082015250565b6000612911602c8361236c565b915061291c826128b5565b604082019050919050565b6000602082019050818103600083015261294081612904565b9050919050565b7f4552433732313a20617070726f76616c20746f2063757272656e74206f776e6560008201527f7200000000000000000000000000000000000000000000000000000000000000602082015250565b60006129a360218361236c565b91506129ae82612947565b604082019050919050565b600060208201905081810360008301526129d281612996565b9050919050565b7f4552433732313a20617070726f76652063616c6c6572206973206e6f74206f7760008201527f6e6572206e6f7220617070726f76656420666f7220616c6c0000000000000000602082015250565b6000612a3560388361236c565b9150612a40826129d9565b604082019050919050565b60006020820190508181036000830152612a6481612a28565b9050919050565b7f4552433732313a207472616e736665722063616c6c6572206973206e6f74206f60008201527f776e6572206e6f7220617070726f766564000000000000000000000000000000602082015250565b6000612ac760318361236c565b9150612ad282612a6b565b604082019050919050565b60006020820190508181036000830152612af681612aba565b9050919050565b7f455243373231456e756d657261626c653a206f776e657220696e646578206f7560008201527f74206f6620626f756e6473000000000000000000000000000000000000000000602082015250565b6000612b59602b8361236c565b9150612b6482612afd565b604082019050919050565b60006020820190508181036000830152612b8881612b4c565b9050919050565b7f455243373231456e756d657261626c653a20676c6f62616c20696e646578206f60008201527f7574206f6620626f756e64730000000000000000000000000000000000000000602082015250565b6000612beb602c8361236c565b9150612bf682612b8f565b604082019050919050565b60006020820190508181036000830152612c1a81612bde565b9050919050565b7f4e487b7100000000000000000000000000000000000000000000000000000000600052603260045260246000fd5b7f4552433732313a206f776e657220717565727920666f72206e6f6e657869737460008201527f656e7420746f6b656e0000000000000000000000000000000000000000000000602082015250565b6000612cac60298361236c565b9150612cb782612c50565b604082019050919050565b60006020820190508181036000830152612cdb81612c9f565b9050919050565b7f4552433732313a2062616c616e636520717565727920666f7220746865207a6560008201527f726f206164647265737300000000000000000000000000000000000000000000602082015250565b6000612d3e602a8361236c565b9150612d4982612ce2565b604082019050919050565b60006020820190508181036000830152612d6d81612d31565b9050919050565b7f4f776e61626c653a2063616c6c6572206973206e6f7420746865206f776e6572600082015250565b6000612daa60208361236c565b9150612db582612d74565b602082019050919050565b60006020820190508181036000830152612dd981612d9d565b9050919050565b7f4552433732314d657461646174613a2055524920717565727920666f72206e6f60008201527f6e6578697374656e7420746f6b656e0000000000000000000000000000000000602082015250565b6000612e3c602f8361236c565b9150612e4782612de0565b604082019050919050565b60006020820190508181036000830152612e6b81612e2f565b9050919050565b600081905092915050565b6000612e8882612361565b612e928185612e72565b9350612ea281856020860161237d565b80840191505092915050565b6000612eba8285612e7d565b9150612ec68284612e7d565b91508190509392505050565b7f4e487b7100000000000000000000000000000000000000000000000000000000600052601160045260246000fd5b6000612f0c8261241c565b9150612f178361241c565b9250817fffffffffffffffffffffffffffffffffffffffffffffffffffffffffffffffff0483118215151615612f5057612f4f612ed2565b5b828202905092915050565b6000612f668261241c565b9150612f718361241c565b9250827fffffffffffffffffffffffffffffffffffffffffffffffffffffffffffffffff03821115612fa657612fa5612ed2565b5b828201905092915050565b6000612fbc8261241c565b91507fffffffffffffffffffffffffffffffffffffffffffffffffffffffffffffffff8203612fee57612fed612ed2565b5b600182019050919050565b7f4f776e61626c653a206e6577206f776e657220697320746865207a65726f206160008201527f6464726573730000000000000000000000000000000000000000000000000000602082015250565b600061305560268361236c565b915061306082612ff9565b604082019050919050565b6000602082019050818103600083015261308481613048565b9050919050565b7f4552433732313a206f70657261746f7220717565727920666f72206e6f6e657860008201527f697374656e7420746f6b656e0000000000000000000000000000000000000000602082015250565b60006130e7602c8361236c565b91506130f28261308b565b604082019050919050565b60006020820190508181036000830152613116816130da565b9050919050565b7f4552433732313a207472616e736665722066726f6d20696e636f72726563742060008201527f6f776e6572000000000000000000000000000000000000000000000000000000602082015250565b600061317960258361236c565b91506131848261311d565b604082019050919050565b600060208201905081810360008301526131a88161316c565b9050919050565b7f4552433732313a207472616e7366657220746f20746865207a65726f2061646460008201527f7265737300000000000000000000000000000000000000000000000000000000602082015250565b600061320b60248361236c565b9150613216826131af565b604082019050919050565b6000602082019050818103600083015261323a816131fe565b9050919050565b600061324c8261241c565b91506132578361241c565b92508282101561326a57613269612ed2565b5b828203905092915050565b7f4552433732313a20617070726f766520746f2063616c6c657200000000000000600082015250565b60006132ab60198361236c565b91506132b682613275565b602082019050919050565b600060208201905081810360008301526132da8161329e565b9050919050565b7f4552433732313a207472616e7366657220746f206e6f6e20455243373231526560008201527f63656976657220696d706c656d656e7465720000000000000000000000000000602082015250565b600061333d60328361236c565b9150613348826132e1565b604082019050919050565b6000602082019050818103600083015261336c81613330565b9050919050565b7f4e487b7100000000000000000000000000000000000000000000000000000000600052601260045260246000fd5b60006133ad8261241c565b91506133b88361241c565b9250826133c8576133c7613373565b5b828204905092915050565b60006133de8261241c565b91506133e98361241c565b9250826133f9576133f8613373565b5b828206905092915050565b600081519050919050565b600082825260208201905092915050565b600061342b82613404565b613435818561340f565b935061344581856020860161237d565b61344e816123b0565b840191505092915050565b600060808201905061346e60008301876124b1565b61347b60208301866124b1565b6134886040830185612547565b818103606083015261349a8184613420565b905095945050505050565b6000815190506134b4816122d2565b92915050565b6000602082840312156134d0576134cf61229c565b5b60006134de848285016134a5565b91505092915050565b7f4e487b7100000000000000000000000000000000000000000000000000000000600052603160045260246000fd5b7f4552433732313a206d696e7420746f20746865207a65726f2061646472657373600082015250565b600061354c60208361236c565b915061355782613516565b602082019050919050565b6000602082019050818103600083015261357b8161353f565b9050919050565b7f4552433732313a20746f6b656e20616c7265616479206d696e74656400000000600082015250565b60006135b8601c8361236c565b91506135c382613582565b602082019050919050565b600060208201905081810360008301526135e7816135ab565b905091905056fea2646970667358221220dc694b2258cf35c8cc974bf3c77e7a697dc840f3c38b138b1e9951dff91f98e464736f6c634300080f0033",
  "immutableReferences": {},
  "source": "// SPDX-License-Identifier: MIT\npragma solidity ^0.8.0;\n\nimport 'openzeppelin-solidity/contracts/token/ERC721/extensions/ERC721Enumerable.sol';\nimport 'openzeppelin-solidity/contracts/access/Ownable.sol';\n\ncontract DerivativeWork is ERC721Enumerable, Ownable {\n\n    string baseURI;\n    address originalCreator;\n    uint256 maxSupply;\n    uint256 mintPrice;\n\n    constructor(string memory _uri, string memory collectionName, \n        string memory collectionSymbol,  uint256 _maxSupply, uint256 _mintPrice, //ether\n        address _originalCreator, uint256 _originalCreatorTokens,\n        address _derivativeCreator, uint256 _derivativeCreatorTokens\n         ) ERC721(collectionName, collectionSymbol)  {\n\n        require(_originalCreatorTokens + _derivativeCreatorTokens < _maxSupply, \"Not enough supply to mint creator and derivate creator tokens.\");\n        \n        baseURI = _uri;\n\n        originalCreator = _originalCreator;\n\n        maxSupply = _maxSupply;\n\n        mintPrice = _mintPrice;\n\n        //first tokens get minted to the original creator\n        for (uint256 i = 0; i < _originalCreatorTokens; i++){\n            _safeMint( _originalCreator, i);\n        }\n\n        for (uint256 j = _originalCreatorTokens; j < _originalCreatorTokens + _derivativeCreatorTokens; j++){\n            _safeMint( _derivativeCreator, j);\n        }\n        transferOwnership(_derivativeCreator); //derivative creator now owns the contract\n\n    }\n\n    function _baseURI() internal view virtual override returns (string memory) {\n        return baseURI;\n    }\n\n    /**\n     * Gets the original creator for this derivative work\n     */\n    function getOriginalCreator() external view returns (address) {\n        return originalCreator;\n    }\n\n    /**\n     * Purchases amount of tokens and transfers to sender\n     */\n    function buy(uint256 amount) external payable{\n        uint256 supply = totalSupply();\n        require(msg.value >= amount * mintPrice); //sent enough ether\n        require(supply + amount < maxSupply); //enough supply left\n\n        for (uint256 i = 0; i < amount; i++){\n            _safeMint(msg.sender, supply + i);\n        }\n\n    }\n\n    function withdrawAll() external onlyOwner {\n        require(payable(msg.sender).send(address(this).balance)); //send value from contract to contract owner\n    }\n\n\n}",
  "sourcePath": "/Users/garrettgordon/Desktop/Personal Projects/remixing-contracts/contracts/DerivativeWork.sol",
  "compiler": {
    "name": "solc",
    "version": "0.8.15+commit.e14f2714.Emscripten.clang"
  },
  "schemaVersion": "3.4.8",
  "updatedAt": "2022-07-15T00:42:05.974Z",
  "devdoc": {
    "kind": "dev",
    "methods": {
      "approve(address,uint256)": {
        "details": "See {IERC721-approve}."
      },
      "balanceOf(address)": {
        "details": "See {IERC721-balanceOf}."
      },
      "getApproved(uint256)": {
        "details": "See {IERC721-getApproved}."
      },
      "isApprovedForAll(address,address)": {
        "details": "See {IERC721-isApprovedForAll}."
      },
      "name()": {
        "details": "See {IERC721Metadata-name}."
      },
      "owner()": {
        "details": "Returns the address of the current owner."
      },
      "ownerOf(uint256)": {
        "details": "See {IERC721-ownerOf}."
      },
      "renounceOwnership()": {
        "details": "Leaves the contract without owner. It will not be possible to call `onlyOwner` functions anymore. Can only be called by the current owner. NOTE: Renouncing ownership will leave the contract without an owner, thereby removing any functionality that is only available to the owner."
      },
      "safeTransferFrom(address,address,uint256)": {
        "details": "See {IERC721-safeTransferFrom}."
      },
      "safeTransferFrom(address,address,uint256,bytes)": {
        "details": "See {IERC721-safeTransferFrom}."
      },
      "setApprovalForAll(address,bool)": {
        "details": "See {IERC721-setApprovalForAll}."
      },
      "supportsInterface(bytes4)": {
        "details": "See {IERC165-supportsInterface}."
      },
      "symbol()": {
        "details": "See {IERC721Metadata-symbol}."
      },
      "tokenByIndex(uint256)": {
        "details": "See {IERC721Enumerable-tokenByIndex}."
      },
      "tokenOfOwnerByIndex(address,uint256)": {
        "details": "See {IERC721Enumerable-tokenOfOwnerByIndex}."
      },
      "tokenURI(uint256)": {
        "details": "See {IERC721Metadata-tokenURI}."
      },
      "totalSupply()": {
        "details": "See {IERC721Enumerable-totalSupply}."
      },
      "transferFrom(address,address,uint256)": {
        "details": "See {IERC721-transferFrom}."
      },
      "transferOwnership(address)": {
        "details": "Transfers ownership of the contract to a new account (`newOwner`). Can only be called by the current owner."
      }
    },
    "version": 1
  },
  "userdoc": {
    "kind": "user",
    "methods": {
      "buy(uint256)": {
        "notice": "Purchases amount of tokens and transfers to sender"
      },
      "getOriginalCreator()": {
        "notice": "Gets the original creator for this derivative work"
      }
    },
    "version": 1
  }
}